{
  "_format": "hh-sol-artifact-1",
  "contractName": "TwitterWeb3",
  "sourceName": "contracts/TwitterWeb3.sol",
  "abi": [
    {
      "inputs": [],
      "stateMutability": "nonpayable",
      "type": "constructor"
    },
    {
      "anonymous": false,
      "inputs": [
        {
          "indexed": true,
          "internalType": "address",
          "name": "from",
          "type": "address"
        },
        {
          "indexed": false,
          "internalType": "string",
          "name": "message",
          "type": "string"
        },
        {
          "indexed": false,
          "internalType": "string",
          "name": "image",
          "type": "string"
        },
        {
          "indexed": false,
          "internalType": "uint256",
          "name": "timestamp",
          "type": "uint256"
        }
      ],
      "name": "NewMessage",
      "type": "event"
    },
    {
      "inputs": [],
      "name": "getAllMessages",
      "outputs": [
        {
          "components": [
            {
              "internalType": "address",
              "name": "sender",
              "type": "address"
            },
            {
              "internalType": "string",
              "name": "message",
              "type": "string"
            },
            {
              "internalType": "string",
              "name": "image",
              "type": "string"
            },
            {
              "internalType": "uint256",
              "name": "timestamp",
              "type": "uint256"
            }
          ],
          "internalType": "struct TwitterWeb3.Message[]",
          "name": "",
          "type": "tuple[]"
        }
      ],
      "stateMutability": "view",
      "type": "function"
    },
    {
      "inputs": [],
      "name": "getTotalMessagesCount",
      "outputs": [
        {
          "internalType": "uint256",
          "name": "",
          "type": "uint256"
        }
      ],
      "stateMutability": "view",
      "type": "function"
    },
    {
      "inputs": [
        {
          "internalType": "string",
          "name": "_message",
          "type": "string"
        },
        {
          "internalType": "string",
          "name": "_image",
          "type": "string"
        }
      ],
      "name": "sendMessage",
      "outputs": [],
      "stateMutability": "nonpayable",
      "type": "function"
    }
  ],
  "bytecode": "0x608060405234801561001057600080fd5b50610c8b806100206000396000f3fe608060405234801561001057600080fd5b50600436106100415760003560e01c8063467fba0f1461004657806353f5e38014610062578063b8070c7314610080575b600080fd5b610060600480360381019061005b91906106d5565b61009e565b005b61006a61023b565b60405161007791906108e2565b60405180910390f35b61008861041e565b60405161009591906109a9565b60405180910390f35b60016000808282546100b09190610a80565b925050819055506100f66040518060400160405280600c81526020017f257320686173207761766564000000000000000000000000000000000000000081525033610469565b600160405180608001604052803373ffffffffffffffffffffffffffffffffffffffff16815260200184815260200183815260200142815250908060018154018082558091505060019003906000526020600020906004020160009091909190915060008201518160000160006101000a81548173ffffffffffffffffffffffffffffffffffffffff021916908373ffffffffffffffffffffffffffffffffffffffff16021790555060208201518160010190805190602001906101bb9291906105ca565b5060408201518160020190805190602001906101d89291906105ca565b506060820151816003015550503373ffffffffffffffffffffffffffffffffffffffff167fd139c8de132b273212c7748176bea519724854faab652bbd83b7967a75f1ac0f83834260405161022f93929190610934565b60405180910390a25050565b60606001805480602002602001604051908101604052809291908181526020016000905b8282101561041557838290600052602060002090600402016040518060800160405290816000820160009054906101000a900473ffffffffffffffffffffffffffffffffffffffff1673ffffffffffffffffffffffffffffffffffffffff1673ffffffffffffffffffffffffffffffffffffffff1681526020016001820180546102e890610b54565b80601f016020809104026020016040519081016040528092919081815260200182805461031490610b54565b80156103615780601f1061033657610100808354040283529160200191610361565b820191906000526020600020905b81548152906001019060200180831161034457829003601f168201915b5050505050815260200160028201805461037a90610b54565b80601f01602080910402602001604051908101604052809291908181526020018280546103a690610b54565b80156103f35780601f106103c8576101008083540402835291602001916103f3565b820191906000526020600020905b8154815290600101906020018083116103d657829003601f168201915b505050505081526020016003820154815250508152602001906001019061025f565b50505050905090565b60006104616040518060400160405280601281526020017f63757272656e746c792025642077617665730000000000000000000000000000815250600054610505565b600054905090565b610501828260405160240161047f929190610904565b6040516020818303038152906040527f319af333000000000000000000000000000000000000000000000000000000007bffffffffffffffffffffffffffffffffffffffffffffffffffffffff19166020820180517bffffffffffffffffffffffffffffffffffffffffffffffffffffffff83818316178352505050506105a1565b5050565b61059d828260405160240161051b929190610979565b6040516020818303038152906040527f9710a9d0000000000000000000000000000000000000000000000000000000007bffffffffffffffffffffffffffffffffffffffffffffffffffffffff19166020820180517bffffffffffffffffffffffffffffffffffffffffffffffffffffffff83818316178352505050506105a1565b5050565b60008151905060006a636f6e736f6c652e6c6f679050602083016000808483855afa5050505050565b8280546105d690610b54565b90600052602060002090601f0160209004810192826105f8576000855561063f565b82601f1061061157805160ff191683800117855561063f565b8280016001018555821561063f579182015b8281111561063e578251825591602001919060010190610623565b5b50905061064c9190610650565b5090565b5b80821115610669576000816000905550600101610651565b5090565b600061068061067b846109e9565b6109c4565b90508281526020810184848401111561069857600080fd5b6106a3848285610b12565b509392505050565b600082601f8301126106bc57600080fd5b81356106cc84826020860161066d565b91505092915050565b600080604083850312156106e857600080fd5b600083013567ffffffffffffffff81111561070257600080fd5b61070e858286016106ab565b925050602083013567ffffffffffffffff81111561072b57600080fd5b610737858286016106ab565b9150509250929050565b600061074d838361085a565b905092915050565b61075e81610ad6565b82525050565b61076d81610ad6565b82525050565b600061077e82610a2a565b6107888185610a4d565b93508360208202850161079a85610a1a565b8060005b858110156107d657848403895281516107b78582610741565b94506107c283610a40565b925060208a0199505060018101905061079e565b50829750879550505050505092915050565b60006107f382610a35565b6107fd8185610a5e565b935061080d818560208601610b21565b61081681610c44565b840191505092915050565b600061082c82610a35565b6108368185610a6f565b9350610846818560208601610b21565b61084f81610c44565b840191505092915050565b60006080830160008301516108726000860182610755565b506020830151848203602086015261088a82826107e8565b915050604083015184820360408601526108a482826107e8565b91505060608301516108b960608601826108c4565b508091505092915050565b6108cd81610b08565b82525050565b6108dc81610b08565b82525050565b600060208201905081810360008301526108fc8184610773565b905092915050565b6000604082019050818103600083015261091e8185610821565b905061092d6020830184610764565b9392505050565b6000606082019050818103600083015261094e8186610821565b905081810360208301526109628185610821565b905061097160408301846108d3565b949350505050565b600060408201905081810360008301526109938185610821565b90506109a260208301846108d3565b9392505050565b60006020820190506109be60008301846108d3565b92915050565b60006109ce6109df565b90506109da8282610b86565b919050565b6000604051905090565b600067ffffffffffffffff821115610a0457610a03610c15565b5b610a0d82610c44565b9050602081019050919050565b6000819050602082019050919050565b600081519050919050565b600081519050919050565b6000602082019050919050565b600082825260208201905092915050565b600082825260208201905092915050565b600082825260208201905092915050565b6000610a8b82610b08565b9150610a9683610b08565b9250827fffffffffffffffffffffffffffffffffffffffffffffffffffffffffffffffff03821115610acb57610aca610bb7565b5b828201905092915050565b6000610ae182610ae8565b9050919050565b600073ffffffffffffffffffffffffffffffffffffffff82169050919050565b6000819050919050565b82818337600083830152505050565b60005b83811015610b3f578082015181840152602081019050610b24565b83811115610b4e576000848401525b50505050565b60006002820490506001821680610b6c57607f821691505b60208210811415610b8057610b7f610be6565b5b50919050565b610b8f82610c44565b810181811067ffffffffffffffff82111715610bae57610bad610c15565b5b80604052505050565b7f4e487b7100000000000000000000000000000000000000000000000000000000600052601160045260246000fd5b7f4e487b7100000000000000000000000000000000000000000000000000000000600052602260045260246000fd5b7f4e487b7100000000000000000000000000000000000000000000000000000000600052604160045260246000fd5b6000601f19601f830116905091905056fea2646970667358221220588045a44c2641f027fc929fd39cf16443409e2d7ac65d252c98b83be7982e6c64736f6c63430008040033",
  "linkReferences": {},
  "deployedLinkReferences": {}
}