{
  "_format": "hh-sol-artifact-1",
  "contractName": "TwitterWeb3",
  "sourceName": "contracts/TwitterWeb3.sol",
  "abi": [
    {
      "inputs": [],
      "stateMutability": "payable",
      "type": "constructor"
    },
    {
      "anonymous": false,
      "inputs": [
        {
          "indexed": true,
          "internalType": "address",
          "name": "from",
          "type": "address"
        },
        {
          "indexed": false,
          "internalType": "string",
          "name": "message",
          "type": "string"
        },
        {
          "indexed": false,
          "internalType": "string",
          "name": "image",
          "type": "string"
        },
        {
          "indexed": false,
          "internalType": "uint256",
          "name": "timestamp",
          "type": "uint256"
        }
      ],
      "name": "NewMessage",
      "type": "event"
    },
    {
      "inputs": [],
      "name": "getAllMessages",
      "outputs": [
        {
          "components": [
            {
              "internalType": "address",
              "name": "sender",
              "type": "address"
            },
            {
              "internalType": "string",
              "name": "message",
              "type": "string"
            },
            {
              "internalType": "string",
              "name": "image",
              "type": "string"
            },
            {
              "internalType": "uint256",
              "name": "timestamp",
              "type": "uint256"
            }
          ],
          "internalType": "struct TwitterWeb3.Message[]",
          "name": "",
          "type": "tuple[]"
        }
      ],
      "stateMutability": "view",
      "type": "function"
    },
    {
      "inputs": [],
      "name": "getTotalMessagesCount",
      "outputs": [
        {
          "internalType": "uint256",
          "name": "",
          "type": "uint256"
        }
      ],
      "stateMutability": "view",
      "type": "function"
    },
    {
      "inputs": [
        {
          "internalType": "address",
          "name": "",
          "type": "address"
        }
      ],
      "name": "lastWavedAt",
      "outputs": [
        {
          "internalType": "uint256",
          "name": "",
          "type": "uint256"
        }
      ],
      "stateMutability": "view",
      "type": "function"
    },
    {
      "inputs": [
        {
          "internalType": "string",
          "name": "_message",
          "type": "string"
        },
        {
          "internalType": "string",
          "name": "_image",
          "type": "string"
        }
      ],
      "name": "sendMessage",
      "outputs": [],
      "stateMutability": "nonpayable",
      "type": "function"
    }
  ],
  "bytecode": "0x6080604052606444426200001491906200002c565b62000020919062000093565b60018190555062000129565b6000620000398262000089565b9150620000468362000089565b9250827fffffffffffffffffffffffffffffffffffffffffffffffffffffffffffffffff038211156200007e576200007d620000cb565b5b828201905092915050565b6000819050919050565b6000620000a08262000089565b9150620000ad8362000089565b925082620000c057620000bf620000fa565b5b828206905092915050565b7f4e487b7100000000000000000000000000000000000000000000000000000000600052601160045260246000fd5b7f4e487b7100000000000000000000000000000000000000000000000000000000600052601260045260246000fd5b61105f80620001396000396000f3fe608060405234801561001057600080fd5b506004361061004c5760003560e01c8063467fba0f1461005157806353f5e3801461006d578063a42a46631461008b578063b8070c73146100bb575b600080fd5b61006b6004803603810190610066919061088c565b6100d9565b005b61007561047a565b6040516100829190610b3a565b60405180910390f35b6100a560048036038101906100a09190610863565b61065d565b6040516100b29190610c31565b60405180910390f35b6100c3610675565b6040516100d09190610c31565b60405180910390f35b42610384600260003373ffffffffffffffffffffffffffffffffffffffff1673ffffffffffffffffffffffffffffffffffffffff168152602001908152602001600020546101279190610d13565b10610167576040517f08c379a000000000000000000000000000000000000000000000000000000000815260040161015e90610c11565b60405180910390fd5b42600260003373ffffffffffffffffffffffffffffffffffffffff1673ffffffffffffffffffffffffffffffffffffffff1681526020019081526020016000208190555060016000808282546101bd9190610d13565b92505081905550600360405180608001604052803373ffffffffffffffffffffffffffffffffffffffff16815260200184815260200183815260200142815250908060018154018082558091505060019003906000526020600020906004020160009091909190915060008201518160000160006101000a81548173ffffffffffffffffffffffffffffffffffffffff021916908373ffffffffffffffffffffffffffffffffffffffff1602179055506020820151816001019080519060200190610289929190610743565b5060408201518160020190805190602001906102a6929190610743565b50606082015181600301555050606460015442446102c49190610d13565b6102ce9190610d13565b6102d89190610e4a565b6001819055506000655af3107a40009050603260015411610423576103326040518060400160405280600781526020017f257320776f6e21000000000000000000000000000000000000000000000000008152503361067e565b47811115610375576040517f08c379a000000000000000000000000000000000000000000000000000000000815260040161036c90610bd1565b60405180910390fd5b60003373ffffffffffffffffffffffffffffffffffffffff168260405161039b90610b25565b60006040518083038185875af1925050503d80600081146103d8576040519150601f19603f3d011682016040523d82523d6000602084013e6103dd565b606091505b5050905080610421576040517f08c379a000000000000000000000000000000000000000000000000000000000815260040161041890610bf1565b60405180910390fd5b505b3373ffffffffffffffffffffffffffffffffffffffff167fd139c8de132b273212c7748176bea519724854faab652bbd83b7967a75f1ac0f84844260405161046d93929190610b8c565b60405180910390a2505050565b60606003805480602002602001604051908101604052809291908181526020016000905b8282101561065457838290600052602060002090600402016040518060800160405290816000820160009054906101000a900473ffffffffffffffffffffffffffffffffffffffff1673ffffffffffffffffffffffffffffffffffffffff1673ffffffffffffffffffffffffffffffffffffffff16815260200160018201805461052790610de7565b80601f016020809104026020016040519081016040528092919081815260200182805461055390610de7565b80156105a05780601f10610575576101008083540402835291602001916105a0565b820191906000526020600020905b81548152906001019060200180831161058357829003601f168201915b505050505081526020016002820180546105b990610de7565b80601f01602080910402602001604051908101604052809291908181526020018280546105e590610de7565b80156106325780601f1061060757610100808354040283529160200191610632565b820191906000526020600020905b81548152906001019060200180831161061557829003601f168201915b505050505081526020016003820154815250508152602001906001019061049e565b50505050905090565b60026020528060005260406000206000915090505481565b60008054905090565b6107168282604051602401610694929190610b5c565b6040516020818303038152906040527f319af333000000000000000000000000000000000000000000000000000000007bffffffffffffffffffffffffffffffffffffffffffffffffffffffff19166020820180517bffffffffffffffffffffffffffffffffffffffffffffffffffffffff838183161783525050505061071a565b5050565b60008151905060006a636f6e736f6c652e6c6f679050602083016000808483855afa5050505050565b82805461074f90610de7565b90600052602060002090601f01602090048101928261077157600085556107b8565b82601f1061078a57805160ff19168380011785556107b8565b828001600101855582156107b8579182015b828111156107b757825182559160200191906001019061079c565b5b5090506107c591906107c9565b5090565b5b808211156107e25760008160009055506001016107ca565b5090565b60006107f96107f484610c71565b610c4c565b90508281526020810184848401111561081157600080fd5b61081c848285610da5565b509392505050565b60008135905061083381611012565b92915050565b600082601f83011261084a57600080fd5b813561085a8482602086016107e6565b91505092915050565b60006020828403121561087557600080fd5b600061088384828501610824565b91505092915050565b6000806040838503121561089f57600080fd5b600083013567ffffffffffffffff8111156108b957600080fd5b6108c585828601610839565b925050602083013567ffffffffffffffff8111156108e257600080fd5b6108ee85828601610839565b9150509250929050565b60006109048383610a9d565b905092915050565b61091581610d69565b82525050565b61092481610d69565b82525050565b600061093582610cb2565b61093f8185610cd5565b93508360208202850161095185610ca2565b8060005b8581101561098d578484038952815161096e85826108f8565b945061097983610cc8565b925060208a01995050600181019050610955565b50829750879550505050505092915050565b60006109aa82610cbd565b6109b48185610cf1565b93506109c4818560208601610db4565b6109cd81610f37565b840191505092915050565b60006109e382610cbd565b6109ed8185610d02565b93506109fd818560208601610db4565b610a0681610f37565b840191505092915050565b6000610a1e603483610d02565b9150610a2982610f48565b604082019050919050565b6000610a41602783610d02565b9150610a4c82610f97565b604082019050919050565b6000610a64600083610ce6565b9150610a6f82610fe6565b600082019050919050565b6000610a87600883610d02565b9150610a9282610fe9565b602082019050919050565b6000608083016000830151610ab5600086018261090c565b5060208301518482036020860152610acd828261099f565b91505060408301518482036040860152610ae7828261099f565b9150506060830151610afc6060860182610b07565b508091505092915050565b610b1081610d9b565b82525050565b610b1f81610d9b565b82525050565b6000610b3082610a57565b9150819050919050565b60006020820190508181036000830152610b54818461092a565b905092915050565b60006040820190508181036000830152610b7681856109d8565b9050610b85602083018461091b565b9392505050565b60006060820190508181036000830152610ba681866109d8565b90508181036020830152610bba81856109d8565b9050610bc96040830184610b16565b949350505050565b60006020820190508181036000830152610bea81610a11565b9050919050565b60006020820190508181036000830152610c0a81610a34565b9050919050565b60006020820190508181036000830152610c2a81610a7a565b9050919050565b6000602082019050610c466000830184610b16565b92915050565b6000610c56610c67565b9050610c628282610e19565b919050565b6000604051905090565b600067ffffffffffffffff821115610c8c57610c8b610f08565b5b610c9582610f37565b9050602081019050919050565b6000819050602082019050919050565b600081519050919050565b600081519050919050565b6000602082019050919050565b600082825260208201905092915050565b600081905092915050565b600082825260208201905092915050565b600082825260208201905092915050565b6000610d1e82610d9b565b9150610d2983610d9b565b9250827fffffffffffffffffffffffffffffffffffffffffffffffffffffffffffffffff03821115610d5e57610d5d610e7b565b5b828201905092915050565b6000610d7482610d7b565b9050919050565b600073ffffffffffffffffffffffffffffffffffffffff82169050919050565b6000819050919050565b82818337600083830152505050565b60005b83811015610dd2578082015181840152602081019050610db7565b83811115610de1576000848401525b50505050565b60006002820490506001821680610dff57607f821691505b60208210811415610e1357610e12610ed9565b5b50919050565b610e2282610f37565b810181811067ffffffffffffffff82111715610e4157610e40610f08565b5b80604052505050565b6000610e5582610d9b565b9150610e6083610d9b565b925082610e7057610e6f610eaa565b5b828206905092915050565b7f4e487b7100000000000000000000000000000000000000000000000000000000600052601160045260246000fd5b7f4e487b7100000000000000000000000000000000000000000000000000000000600052601260045260246000fd5b7f4e487b7100000000000000000000000000000000000000000000000000000000600052602260045260246000fd5b7f4e487b7100000000000000000000000000000000000000000000000000000000600052604160045260246000fd5b6000601f19601f8301169050919050565b7f547279696e6720746f207769746864726177206d6f7265206d6f6e657920746860008201527f616e2074686520636f6e7472616374206861732e000000000000000000000000602082015250565b7f4661696c656420746f207769746864726177206d6f6e65792066726f6d20636f60008201527f6e74726163742e00000000000000000000000000000000000000000000000000602082015250565b50565b7f576169742031356d000000000000000000000000000000000000000000000000600082015250565b61101b81610d69565b811461102657600080fd5b5056fea26469706673582212205c623287fb5759d1a361cd63bfb96dc22f111837708695baeb884eafbec94a2464736f6c63430008040033",
  "linkReferences": {},
  "deployedLinkReferences": {}
}