{
  "_format": "hh-sol-artifact-1",
  "contractName": "TwitterWeb3",
  "sourceName": "contracts/TwitterWeb3.sol",
  "abi": [
    {
      "inputs": [],
      "stateMutability": "nonpayable",
      "type": "constructor"
    },
    {
      "anonymous": false,
      "inputs": [
        {
          "indexed": true,
          "internalType": "address",
          "name": "from",
          "type": "address"
        },
        {
          "indexed": false,
          "internalType": "string",
          "name": "message",
          "type": "string"
        },
        {
          "indexed": false,
          "internalType": "uint256",
          "name": "timestamp",
          "type": "uint256"
        }
      ],
      "name": "NewMessage",
      "type": "event"
    },
    {
      "inputs": [],
      "name": "getAllMessages",
      "outputs": [
        {
          "components": [
            {
              "internalType": "address",
              "name": "sender",
              "type": "address"
            },
            {
              "internalType": "string",
              "name": "message",
              "type": "string"
            },
            {
              "internalType": "uint256",
              "name": "timestamp",
              "type": "uint256"
            }
          ],
          "internalType": "struct TwitterWeb3.Message[]",
          "name": "",
          "type": "tuple[]"
        }
      ],
      "stateMutability": "view",
      "type": "function"
    },
    {
      "inputs": [],
      "name": "getTotalMessagesCount",
      "outputs": [
        {
          "internalType": "uint256",
          "name": "",
          "type": "uint256"
        }
      ],
      "stateMutability": "view",
      "type": "function"
    },
    {
      "inputs": [
        {
          "internalType": "string",
          "name": "_message",
          "type": "string"
        }
      ],
      "name": "sendMessage",
      "outputs": [],
      "stateMutability": "nonpayable",
      "type": "function"
    }
  ],
  "bytecode": "0x60806040523480156200001157600080fd5b506200005d6040518060400160405280601a81526020017f616f6668616865706168677061686967706561686770616569670000000000008152506200006360201b620003b11760201c565b620001f7565b62000103816040516024016200007a919062000170565b6040516020818303038152906040527f41304fac000000000000000000000000000000000000000000000000000000007bffffffffffffffffffffffffffffffffffffffffffffffffffffffff19166020820180517bffffffffffffffffffffffffffffffffffffffffffffffffffffffff83818316178352505050506200010660201b60201c565b50565b60008151905060006a636f6e736f6c652e6c6f679050602083016000808483855afa5050505050565b60006200013c8262000194565b6200014881856200019f565b93506200015a818560208601620001b0565b6200016581620001e6565b840191505092915050565b600060208201905081810360008301526200018c81846200012f565b905092915050565b600081519050919050565b600082825260208201905092915050565b60005b83811015620001d0578082015181840152602081019050620001b3565b83811115620001e0576000848401525b50505050565b6000601f19601f8301169050919050565b610c0480620002076000396000f3fe608060405234801561001057600080fd5b50600436106100415760003560e01c8063469c81101461004657806353f5e38014610062578063b8070c7314610080575b600080fd5b610060600480360381019061005b91906106b6565b61009e565b005b61006a610215565b604051610077919061087e565b60405180910390f35b610088610366565b6040516100959190610922565b60405180910390f35b60016000808282546100b091906109f9565b925050819055506100f66040518060400160405280600c81526020017f25732068617320776176656400000000000000000000000000000000000000008152503361044a565b600160405180606001604052803373ffffffffffffffffffffffffffffffffffffffff16815260200183815260200142815250908060018154018082558091505060019003906000526020600020906003020160009091909190915060008201518160000160006101000a81548173ffffffffffffffffffffffffffffffffffffffff021916908373ffffffffffffffffffffffffffffffffffffffff16021790555060208201518160010190805190602001906101b59291906105ab565b506040820151816002015550503373ffffffffffffffffffffffffffffffffffffffff167f4bba44446aea2a9f27db36c95346239fd392bf3a497349684a3890d0d764077d824260405161020a9291906108f2565b60405180910390a250565b60606001805480602002602001604051908101604052809291908181526020016000905b8282101561035d57838290600052602060002090600302016040518060600160405290816000820160009054906101000a900473ffffffffffffffffffffffffffffffffffffffff1673ffffffffffffffffffffffffffffffffffffffff1673ffffffffffffffffffffffffffffffffffffffff1681526020016001820180546102c290610acd565b80601f01602080910402602001604051908101604052809291908181526020018280546102ee90610acd565b801561033b5780601f106103105761010080835404028352916020019161033b565b820191906000526020600020905b81548152906001019060200180831161031e57829003601f168201915b5050505050815260200160028201548152505081526020019060010190610239565b50505050905090565b60006103a96040518060400160405280601281526020017f63757272656e746c7920256420776176657300000000000000000000000000008152506000546104e6565b600054905090565b610447816040516024016103c591906108a0565b6040516020818303038152906040527f41304fac000000000000000000000000000000000000000000000000000000007bffffffffffffffffffffffffffffffffffffffffffffffffffffffff19166020820180517bffffffffffffffffffffffffffffffffffffffffffffffffffffffff8381831617835250505050610582565b50565b6104e282826040516024016104609291906108c2565b6040516020818303038152906040527f319af333000000000000000000000000000000000000000000000000000000007bffffffffffffffffffffffffffffffffffffffffffffffffffffffff19166020820180517bffffffffffffffffffffffffffffffffffffffffffffffffffffffff8381831617835250505050610582565b5050565b61057e82826040516024016104fc9291906108f2565b6040516020818303038152906040527f9710a9d0000000000000000000000000000000000000000000000000000000007bffffffffffffffffffffffffffffffffffffffffffffffffffffffff19166020820180517bffffffffffffffffffffffffffffffffffffffffffffffffffffffff8381831617835250505050610582565b5050565b60008151905060006a636f6e736f6c652e6c6f679050602083016000808483855afa5050505050565b8280546105b790610acd565b90600052602060002090601f0160209004810192826105d95760008555610620565b82601f106105f257805160ff1916838001178555610620565b82800160010185558215610620579182015b8281111561061f578251825591602001919060010190610604565b5b50905061062d9190610631565b5090565b5b8082111561064a576000816000905550600101610632565b5090565b600061066161065c84610962565b61093d565b90508281526020810184848401111561067957600080fd5b610684848285610a8b565b509392505050565b600082601f83011261069d57600080fd5b81356106ad84826020860161064e565b91505092915050565b6000602082840312156106c857600080fd5b600082013567ffffffffffffffff8111156106e257600080fd5b6106ee8482850161068c565b91505092915050565b60006107038383610810565b905092915050565b61071481610a4f565b82525050565b61072381610a4f565b82525050565b6000610734826109a3565b61073e81856109c6565b93508360208202850161075085610993565b8060005b8581101561078c578484038952815161076d85826106f7565b9450610778836109b9565b925060208a01995050600181019050610754565b50829750879550505050505092915050565b60006107a9826109ae565b6107b381856109d7565b93506107c3818560208601610a9a565b6107cc81610bbd565b840191505092915050565b60006107e2826109ae565b6107ec81856109e8565b93506107fc818560208601610a9a565b61080581610bbd565b840191505092915050565b6000606083016000830151610828600086018261070b565b5060208301518482036020860152610840828261079e565b91505060408301516108556040860182610860565b508091505092915050565b61086981610a81565b82525050565b61087881610a81565b82525050565b600060208201905081810360008301526108988184610729565b905092915050565b600060208201905081810360008301526108ba81846107d7565b905092915050565b600060408201905081810360008301526108dc81856107d7565b90506108eb602083018461071a565b9392505050565b6000604082019050818103600083015261090c81856107d7565b905061091b602083018461086f565b9392505050565b6000602082019050610937600083018461086f565b92915050565b6000610947610958565b90506109538282610aff565b919050565b6000604051905090565b600067ffffffffffffffff82111561097d5761097c610b8e565b5b61098682610bbd565b9050602081019050919050565b6000819050602082019050919050565b600081519050919050565b600081519050919050565b6000602082019050919050565b600082825260208201905092915050565b600082825260208201905092915050565b600082825260208201905092915050565b6000610a0482610a81565b9150610a0f83610a81565b9250827fffffffffffffffffffffffffffffffffffffffffffffffffffffffffffffffff03821115610a4457610a43610b30565b5b828201905092915050565b6000610a5a82610a61565b9050919050565b600073ffffffffffffffffffffffffffffffffffffffff82169050919050565b6000819050919050565b82818337600083830152505050565b60005b83811015610ab8578082015181840152602081019050610a9d565b83811115610ac7576000848401525b50505050565b60006002820490506001821680610ae557607f821691505b60208210811415610af957610af8610b5f565b5b50919050565b610b0882610bbd565b810181811067ffffffffffffffff82111715610b2757610b26610b8e565b5b80604052505050565b7f4e487b7100000000000000000000000000000000000000000000000000000000600052601160045260246000fd5b7f4e487b7100000000000000000000000000000000000000000000000000000000600052602260045260246000fd5b7f4e487b7100000000000000000000000000000000000000000000000000000000600052604160045260246000fd5b6000601f19601f830116905091905056fea26469706673582212207860344c8150f07bc8d689d0662dbc9f1f17a22bc951df48aea2aaa5a51a691964736f6c63430008040033",
  "linkReferences": {},
  "deployedLinkReferences": {}
}